:100000000C9467050C948F050C948F050C948F0548
:100010000C948F050C948F050C948F050C948F0510
:100020000C948F050C948F050C948F050C9444311F
:100030000C948F050C948F050C948F050C948F05F0
:100040000C94AD310C948F050C948F050C948F0596
:100050000C948F050C948F050C948F050C948F05D0
:100060000C948F050C948F053906390639067D06E8
:1000700036066106860661064E068906390674064E
:10008000360680068306B8069D069F069D06C306B3
:10009000BA06BA06BA069D06C306BA06C306E20643
:1000A000E206D606D406D606D606D406D606E2065C
:1000B000E206E206D4064C0CC80CF50B230DDB0C53
:1000C000230D100C970C230D7A0C840C230DE80CD7
:1000D0007F0E7F0E7B0E6F0E8A0E730E940E730EC4
:1000E000730E770E7F0E770E860E2F0F570F680F49
:1000F000A40F170F370FCE0F3F0F800F9A0F2F0F40
:100100008A0F920FE315F215EF150116E015E915A8
:100110000416EC15F515FE15E615F815FB15433A12
:1001200020524553554D4500423A205341564520F3
:100130002620515549540047414D452050415553C3
:100140004544002000574541504F4E20434845410B
:1001500054004E4557204849474853434F52452184
:10016000004C415354204D415020554E4C4F434B71
:10017000454421004C4153455220554E4C4F434B72
:10018000454421004449534B20554E4C4F434B4569
:100190004421004E4557204D415020554E4C4F4371
:1001A0004B45442100414B494D424F20554E4C4F49
:1001B000434B454421004752454E41444553205549
:1001C0004E4C4F434B454421004D414348494E4519
:1001D00047554E20554E4C4F434B45442100534EFE
:1001E0004950455220554E4C4F434B454421004EFB
:1001F0004557204D415020554E4C4F434B454421CF
:10020000004D494E455320554E4C4F434B454421DC
:10021000005245564F4C56455220554E4C4F434B7D
:1002200045442100434C554220554E4C4F434B45CD
:10023000442100524F434B45545320554E4C4F439D
:100240004B454421004E4557204D415020554E4CC2
:100250004F434B4544210053484F5447554E20557A
:100260004E4C4F434B454421005249464C45205586
:100270004E4C4F434B454421004D494E4500524F93
:10028000434B4554004752454E414445004C415371
:100290004552004449534B004D414348494E454760
:1002A000554E005249464C450053484F5447554E11
:1002B00000534E49504552005245564F4C564552F8
:1002C00000414B494D424F00504953544F4C00435D
:1002D0004C55420047414D45204F56455221004C58
:1002E0004F434B454421004E65787420756E6C6F0A
:1002F000636B3A200053636F72653A2000112053FC
:10030000656C656374206D61702010000806FC84C4
:10031000ECDC84FC100A00003FE03FE03DA03DA083
:100320003FE03FE03FE038E038E0100A00003FE007
:100330003FE03DA03DA03FE03FE03FE03FE001C0A7
:10034000100A3FE03FE03DA03DA03FE03FE03FE03E
:100350003FE00F000700100A3FE03FE03DA03DA056
:100360003FE03FE03FE03FE007800700100A3FE04A
:100370003FE03DA03DA03FE03FE03FE03FE00F8099
:100380000E00100A3FE03FE03DA03DA03FE03FE00F
:100390003FE03FE01DC01C000808007E6C6C7E7EC4
:1003A0007E6608087E6C6C7E7E3C3C0C08087E6C89
:1003B0006C7E7E38381808087E6C6C7E7E1C1C189B
:1003C0000808007E6C6C7E7E3C300809007E7E7ED4
:1003D0007E7E7E7E6608097E7E7E7E7E7E3C3C0C36
:1003E00008097E7E7E7E7E7E3838180809007E7E73
:1003F0007E7E7E1C1C180809007E7E7E7E7E7E3CF2
:10040000301803003800000000003800180400C74E
:10041000E000FFE000C7E0007C00180501002001BB
:10042000FFE001D7E001FFE00100201805000020F7
:1004300000FFF000FC0000FC0000FFF018040000CA
:1004400000003800003800003800180500001000D7
:10045000C7F000C7F000C7C000FC00180200000091
:10046000001C0018040000100063F0007FF0007C06
:100470000018040000C000FFFE00FFE000E30018C9
:1004800003000000001E0000080018040000040023
:1004900021FC0037F000310018040000800000F853
:1004A0000001F80001C0180500008000FFA800FF4F
:1004B000FC00FFA800008018030000F00001E0002D
:1004C00001001806C00000F000007C00001F0000C2
:1004D0000780000180000806F4FCBCF8FCDC08067C
:1004E0007CE0C0E0FC7C0806FC000000FCFC080688
:1004F000FC10284480FC08067C80808094E8080674
:10050000FC000018A4580806FC24FC90FC482018A5
:10051000FFFE7FFF8000000180000001F007E00F78
:10052000800000018000000187FC3FE180000001A5
:1005300080000001F003C0018003C1FF8003C03FC1
:100540008FFFC0038003FC0380000003FC00000356
:10055000C00C01FFC00C003FCFFC030FC00F030F06
:10056000C003C00FFC00000FFFC0000FFFFFFF0F14
:100570001810FFE7FF80000180000180000183FF69
:10058000C1800001800001F8001F8000018000018F
:100590008FC3F1800001800001F03C0FF3FFCFF327
:1005A000FFCF1810FFE7FF800001800001803C01B1
:1005B00080000180000187E7E1800001800001FCEC
:1005C000183FE00007E00007E0FF07E00007E00059
:1005D00007FFC3FF1810FFE7FF80000180000180C4
:1005E000000180000183FFC1800001800001FC0048
:1005F0003F80000180000187FFE180000180000151
:10060000F8001FFFC3FF100AFE7F800180018FF1F9
:1006100080018001FC3F800180019FF905804D78B9
:1006200049781803000005004D78497870060000ED
:100630004500497034030000058001804988200F7F
:100640000000050049704D885403000045008401F6
:1006500000000500400150015C01700180016C0147
:1006600054016001740184014C015C0168017C014A
:100670008C010000450049784D78280A000045802B
:10068000018089885C3C0000450040014181497837
:100690008D782C05000045002C010000401E000054
:1006A000000000000000000000FFFFFFFFF000005E
:1006B0000081320408100000009F3264F9900000AD
:1006C000008132043830000000F9327CF9900000DB
:1006D0000081027C0990000000FFFFFFFFF0000096
:1006E0000081020408100000009F326739F000000A
:1006F000009F060738700000009F326739F0000045
:10070000008132673810000000FFFFFFFFF000009B
:1007100000604C932060600000264C91264001F858
:100720000020CC9226400DF820A64C932640810F45
:10073000E4204093204001BF803FFFFFFFC001F84D
:100740000007FFFFFE0001F80000FFFFF00001F8C6
:1007500000001FFF80000198000003FC0000FFFF65
:10076000F000006000000000080000000000000031
:10077000080000000000C30C08000000000034D393
:10078000480000000000CB2CB8000000000003056A
:100790003F213F1208120A100A0E1C0E0C1E0C14E8
:1007A0001A14161F161E131E1E1B1E1E1F1E3F216F
:1007B0003F3A2F3A173D173F213F181F02040A0402
:1007C0001F0E04040E1F0A1F0A0E0E1F04110E2E08
:1007D000252E2F2A2E262929021F02081F08150E52
:1007E00004040E150E15151B151B040604040C0439
:1007F0000000000017000300031F0A1F16371A1914
:1008000004130A153A000300000E11110E000A0429
:100810000A040E040030000404040010001804034D
:100820001F111F121F101D151711151F07041F1769
:10083000151D1F151D01011F1F151F17151F000A6C
:1008400000003200040A110A0A0A110A0401150202
:100850000E11171E051E1F150A0E110A1F110E1F5D
:1008600015111F05010E111D1F041F111F11081066
:100870000F1F041B1F10101F061F1E040F0E110E4A
:100880001F09060E112E1F051A121509011F011F3F
:10089000101F0F180F1F0C1F1B041B031C0319151F
:1008A00013001F11030418111F0002010220202051
:1008B0000001020C121E1F120C0C12120C121F0C43
:1008C0001A14041E05242A1E1F021C141D102020A9
:1008D0001D1F0814111F101E041E1E021C0C120CDA
:1008E0003E0A040C123E1E040214160A020F120ED7
:1008F000101E0E100E1E081E120C1226281E322A62
:1009000026041E21001F00211E040102013F213F79
:100910000A4E6F2053442063617264206F720A6E26
:100920006F204C4F414445522E4845580A0A153A0B
:1009300045786974001D20466C617368696E670AAA
:1009400020206C6F616465722E2E2E0A0A444F4E71
:100950002754205455524E204F464621000A0A156E
:100960003A49676E6F7265006D560A0A504C4541F0
:100970005345205455524E204F464620004C4F5769
:100980002042415454455259212000175344001627
:1009900013780016131400151020001520100054B1
:1009A0000A03E181867F3E186D830F0F0E01838657
:1009B0006033186DC3198F1803C38E6033186DE34D
:1009C00030CF1803C39E603630CDE360CF3006C70A
:1009D0009E7E3E30CDB360CF300CC6F6603330D94A
:1009E000B660CF33CFCCF66061B0DB1E60CF30D8BD
:1009F0006CE6C061B0DB1E618F19986CC6C063B134
:100A00009B0E330F0FB078C6FF7E1F1B061E0F050F
:100A100000893008023802497868140000F6E8DBE3
:100A2000CFC3B8AEA49B928A827B746E68625C5717
:100A3000524E4945413E3A3734312E2C2927252341
:100A4000211F1D1C1A1917161514131211100F0E41
:100A50000D0C0B0A09080706450068010000050097
:100A60003801680100006E0A6A0A0101FF030101F2
:100A7000F703000000080002010000030407000063
:100A80000000000000000102040810204080010264
:100A900004081020010204081020040404040404C3
:100AA0000404020202020202030303030303000020
:100AB0000000230026002900000000002500280077
:100AC0002B0000000000240027002A005A1F1124D8
:100AD0001FBECFEFD8E0DEBFCDBF11E0A0E0B1E098
:100AE000E8EDF0E702C005900D92AA3BB107D9F7F7
:100AF00027E0AAEBB1E001C01D92A530B207E1F7F3
:100B00001AE0CEECDAE004C02297FE010E94D13751
:100B1000CC3CD107C9F70E94C7330C946A380C94B7
:100B20000000FB0105900020E9F7609570956E0FBD
:100B30007F1FCB01089580E0089588E090E008953C
:100B400080E890E0089585E090E0089585E090E0E9
:100B5000089584E690E0089584E690E0089580E8A2
:100B600090E00895DC011B96EC91E250EC3040F4EB
:100B7000F0E0E35CFE4F8081992787FD9095089512
:100B800085E090E00895DC011B96EC91E350EC3099
:100B900040F4F0E0EF5CFE4F8081992787FD90954F
:100BA00008958EE190E0089580E390E0089588E450
:100BB00090E0089588E090E00895FC018189882301
:100BC00019F08AE090E0089588E290E00895FC0131
:100BD000818990E0919581959109089580E090E058
:100BE0000895FC018385811103C080E390E008959E
:100BF00088E490E00895FC018385811103C080E4BE
:100C000090E0089580E590E00895FC018585181630
:100C10001CF484E090E008958AE090E0089580E07C
:100C200090E00895FC01858518161CF484E690E098
:100C300008958FEF9FEF089580E090E0089580E29F
:100C400090E0089580E390E0089580E390E00895B7
:100C5000DC011B964C911B9750E04F30510508F07A
:100C600055C04C5C5F4FFA010C94CF3780E690E0A2
:100C7000089516968D919C9117979C01295F3F4F7F
:100C80002F30310508F448C097FF03C09195819536
:100C90009109813191050CF441C035C016968D91B2
:100CA0009C9117979C01295F3F4F2F303105A0F190
:100CB00097FF03C09195819591098931910574F150
:100CC00028C016968D919C9117979C01295F3F4FE4
:100CD0002F30310508F197FF03C091958195910957
:100CE00081329105DCF012C01C968C91F8E08F02E5
:100CF000C0011124813391058CF080E390E00895C8
:100D000080E091E0089580E190E0089580E290E035
:100D1000089588E190E0089588E090E00895CF93E9
:100D2000DF93EC014B8550E0FA013397EC30F1058D
:100D300008F5ED5BFF4F0C94CF3780E125C0E881CB
:100D4000F9810280F381E02D099542976CF0E881EA
:100D5000F9810280F381E02DCE01099597FD01967E
:100D60009C013595279502C028E030E0C9010DC0EF
:100D700088E10AC0E881F9810280F381E02DCE018B
:100D8000DF91CF91099488E090E0DF91CF910895B1
:100D9000FC01438550E0FA013397EC30F10530F463
:100DA000E15BFF4F0C94CF3785E00DC0FC018681DD
:100DB000978197FF03C0919581959109419714F40C
:100DC00082E001C080E090E00895DC011B962C9148
:100DD000293011F02E3039F4DC01ED91FC910684BC
:100DE000F785E02D099480E090E008950C94543844
:100DF000FC013196849120E3829FC0011124089563
:100E00000F931F93CF93DF93EC019A016450710904
:100E1000CB0160E370E00E947A378B01FE01849180
:100E200090E03196E49177FD1AC068177907BCF419
:100E3000C901049760E370E00E947A3777FD0FC024
:100E4000F0E06E177F075CF4262F402FBE0180EB89
:100E500094E0DF91CF911F910F910C94742580E065
:100E6000DF91CF911F910F9108956F927F928F9292
:100E70009F92AF92BF92CF92DF92EF92FF920F9329
:100E80001F93CF93DF93EC017B016A015901380175
:100E90004A01800E911EA401888199810E94000759
:100EA000882311F081E051C087010A0D1B1DA401A8
:100EB000B801888199810E9400078111F3CFA601B2
:100EC000B801888199810E9400078111EBCFA601AA
:100ED000B701888199810E9400078111E3CF81E3E6
:100EE000A816B10434F481E368167104BCF480E000
:100EF0002CC0B594A794AE0CBF1CA601B501888187
:100F000099810E9400078111CDCFA401B50188818C
:100F100099810E940007882331F3C4CF75946794A8
:100F20006C0C7D1CA301B701888199810E94000788
:100F30008111B8CFA301B801888199810E9400076F
:100F400091E0811101C090E0892FDF91CF911F9135
:100F50000F91FF90EF90DF90CF90BF90AF909F9058
:100F60008F907F906F9008952F923F924F925F9253
:100F70006F927F928F929F92AF92BF92CF92DF92A9
:100F8000EF92FF920F931F93CF93DF93CDB7DEB70E
:100F900028970FB6F894DEBF0FBECDBF6C018091CD
:100FA00012049091130426E030E0B9010E947A37D0
:100FB000462F562E472E8091100490911104B901AE
:100FC0000E947A3778876F839B01275F3F4F3A8370
:100FD0002983D601ED91FC918491282F30E03C8348
:100FE0002B833196E4918E2F90E09E838D83142F76
:100FF000110F140F110FAF81B885E981FA81AE1777
:10100000BF0709F49DC06F80FA2EFF0CFA0EFF0C8B
:10101000A52CB42C712C33243A94360CB7FC56C052
:10102000AB81BC81AA16BB060CF050C0EF81F885DD
:10103000F7FD4CC02D813E81E217F3070CF046C04E
:101040000A2DD6016D917C91262D4A2D80EB94E0DE
:101050000E9474258823D1F1F601848095808081D7
:1010600091810E94F80660E370E00E947A37615037
:1010700071092F813885261737070CF04BC0232BB9
:1010800009F448C0D6016D917C91232D4A2D80EB47
:1010900094E00E94742581113DC0D60116968D9171
:1010A0009C911797892B01F5212CE12C809110043C
:1010B0004F2D481B672D610F80911204681B621928
:1010C00000E0940180EB94E00E94A125FFEFAF1AAD
:1010D000BF0A26E0720E3AE57312A0CF8F81988581
:1010E000019698878F8387CFF60160817181262DC5
:1010F00041E0400F80EB94E00E94742581110EC006
:10110000D60116968D909C90179762E0262EEE24BD
:10111000E39406C0F60182809380C6CF212CE12C97
:101120004FEF400FD6016D917C91262D80EB94E01E
:101130000E9474258111BACFF60186809780B6CFC0
:1011400028960FB6F894DEBF0FBECDBFDF91CF91CA
:101150001F910F91FF90EF90DF90CF90BF90AF90D5
:101160009F908F907F906F905F904F903F902F90C7
:101170000895EF92FF920F931F93CF93DF93EC01AB
:10118000E881F9810680F781E02D09952885398568
:10119000280F391F39872887EE80FF80E881F98181
:1011A0000284F385E02DCE01099504E610E0980154
:1011B000281B390BE29EC001E39E900DF29E900D1C
:1011C0001124B8010E947A377F836E83E884F98402
:1011D000E881F9810484F585E02DCE010995980117
:1011E000281B390BE29EC001E39E900DF29E900DEC
:1011F0001124B8010E947A37798768870E811F8190
:10120000E881F9810084F185E02DCE010995919561
:1012100081959109E881F981081719074CF4008438
:10122000F185E02DCE01099591958195910914C024
:101230000E811F810084F185E02DCE010995801774
:10124000910744F4E881F9810084F185E02DCE0115
:10125000099502C08E819F819F838E8308851985A1
:10126000E881F9810084F185E02DCE010995919501
:1012700081959109E881F981081719074CF40084D8
:10128000F185E02DCE01099591958195910914C0C4
:10129000088519850084F185E02DCE010995801718
:1012A000910744F4E881F9810084F185E02DCE01B5
:1012B000099502C088859985998788878A819B814D
:1012C0002E813F81820F931F9B838A83E881F9815E
:1012D0000684F785E02DCE01099597FF02C0F12C19
:1012E00060C08E819F81181619061CF4EE24E394C9
:1012F00002C0EE24EA94E881F9810480F581E02DB2
:10130000CE0109958C01E881F9810280F381E02DFD
:10131000CE0109954C815D816A817B819C0186EFBC
:1013200093E00E9435078823D1F2FF24E7FCF09474
:101330008A819B818E199F099B838A83E881F98129
:101340000480F581E02DCE0109958C01E881F981B9
:101350000280F381E02DCE0109954C815D816A8187
:101360007B819C0186EF93E00E9435078111E0CFDD
:101370000E811F81E881F9810684F785E02DCE0179
:1013800009959C01029FC001039F900D129F900D33
:1013900011246CE97FEF0E947A377F836E83FF24EC
:1013A000F3942C813D8188859985280F391F3D83D1
:1013B0002C83E881F9810684F785E02DCE0109951B
:1013C00097FD60C088859985181619061CF4EE24CF
:1013D000E39402C0EE24EA94E881F9810480F58167
:1013E000E02DCE0109958C01E881F9810280F3811D
:1013F000E02DCE0109959C014C815D816A817B8144
:1014000086EF93E00E9435078823E1F1FF24E7FC93
:10141000F0948C819D818E199F099D838C83E88136
:10142000F9810480F581E02DCE0109958C01E881D8
:10143000F9810280F381E02DCE0109954C815D8117
:101440006A817B819C0186EF93E00E9435078111C0
:10145000E0CF08851985E881F9810088F189E02DC0
:10146000CE0109959C01029FC001039F900D129F20
:10147000900D11246CE97FEF0E947A377987688795
:10148000FF24F3942E813F811216130614F481E099
:1014900003C0232B11F08FEF8A878F2DDF91CF911F
:1014A0001F910F91FF90EF900895EF92FF920F938D
:1014B0001F93CF93DF93EC010A811B81780117FF03
:1014C00003C087E0E80EF11C83E0F594E7948A9569
:1014D000E1F78091120490911304E81AF90AE88167
:1014E000F9810280F381E02DCE010995209112044B
:1014F00030911304800F911F97FD0796B3E09595E7
:101500008795BA95E1F7821B930B8E0D9F1D97FD72
:101510004DC08A819B8197FD0796A3E0959587959D
:10152000AA95E1F7821B930B853591050CF03EC01F
:101530000C811D81780117FF03C087E0E80EF11CC4
:10154000F3E0F594E794FA95E1F780911004909117
:101550001104E81AF90AE881F9810480F581E02D87
:10156000CE0109952091100430911104800F911F34
:1015700097FD0796E3E095958795EA95E1F7821B3D
:10158000930B8E0D9F1D97FD11C08C819D8197FD42
:10159000079673E0959587957A95E1F7821B930BF3
:1015A00021E0C1970CF420E0822F01C081E0DF919F
:1015B000CF911F910F91FF90EF900895EF92FF92BE
:1015C0000F931F93CF93DF93EC010E94550A811173
:1015D00049C0E881F9810480F581E02DCE010995AB
:1015E0007C01E881F9810280F381E02DCE0109952B
:1015F0008701F7FE02C0095F1F4F53E0159507955D
:101600005A95E1F79C0197FF02C0295F3F4F43E0E5
:10161000359527954A95E1F74C815D8157FF02C0CA
:10162000495F5F4F33E0559547953A95E1F78091D3
:10163000100490911104481B590B6A817B8177FF3C
:1016400002C0695F7F4F93E0759567959A95E1F7C2
:101650008091120490911304681B790B80EB94E045
:101660000E942222DF91CF911F910F91FF90EF9066
:101670000895CF93DF93EC018C85882309F453C040
:10168000CE010E94B9089C8591509C879B85933020
:1016900011F4813059F08C85811145C0963041F0AC
:1016A000993031F0933009F03EC002C01C86F3CF70
:1016B0008DE08B87E881F9810280F381E02DCE01F6
:1016C000099597FD0196959587952A813B81281B61
:1016D000390B3B832A83E881F9810480F581E02D71
:1016E000CE01099597FD0196959587952C813D81B1
:1016F000281B390B3D832C8388E08C878AE090E09F
:1017000090930F0480930E0482E090E090930D0478
:1017100080930C0440E064E776E08BE394E0DF9193
:10172000CF910C94512EDF91CF9108952F923F923B
:101730004F925F926F927F928F929F92AF92BF92E1
:10174000CF92DF92EF92FF920F93CF93DF935C01E2
:101750006B011A017901EEEFF2E0C0E0D0E0808188
:1017600081111DC28DE08C9F40018D9F900C112432
:1017700094012E503D4F4901D9011B960C93EDEF7A
:10178000E00FEC3040F4F0E0E75EFE4F80819927F7
:1017900087FD909502C089E190E09DE09C9FF0015B
:1017A0009D9FF00D1124EE50FD4F8487053029F0E8
:1017B00080F089EF800F823060F482E090E09093B7
:1017C0000F0480930E0481E090E090930D048093C9
:1017D0000C04802F90E0FC013297ED30F10508F009
:1017E00032C1E55AFF4F0C94CF378DE08C9FF0014A
:1017F0008D9FF00D1124EE50FD4FC70165E0880F5D
:10180000991F6A95E1F797838683D50112968D918A
:101810009C911397DC0118968D919C911997B5C0F6
:1018200029E030E040E050E068EF7FEF8FEF9FEF7E
:101830000E946D352DE02C9F30012D9F700C1124DE
:10184000F301EE50FD4F3F0120E32E9DA0012F9D9F
:10185000500D1124460F571F5783468321E130E076
:1018600040E050E060EF7FEF8FEF9FEF0E946D351B
:10187000D30119967C936E931897D5011296ED912A
:10188000FC911397228586819781B0E22B02801903
:10189000910911249783868329E030E040E050E0ED
:1018A00068EF7FEF8FEF9FEF0E946D352DE02C9F4B
:1018B00030012D9F700C1124F301EE50FD4F3F01BC
:1018C00020E32E9DA0012F9D500D1124460F571F80
:1018D000578346832BE030E040E050E066EF7FEF37
:1018E0008FEF9FEF0E946D35D30119967C936E9315
:1018F0001897D8C08DE08C9FF0018D9FF00D1124BA
:10190000EE50FD4F2AE109C08DE08C9FF0018D9FC4
:10191000F00D1124EE50FD4F22E32E9DC0012F9DAE
:10192000900D11249783868311861086C5C0F5011A
:10193000A281B3818DE08C9FF0018D9FF00D112469
:10194000EE50FD4F970155E0220F331F5A95E1F7F6
:1019500016968D919C91179797FD01969595879571
:10196000820F931F978386838DE08C9FF0018D9F5C
:10197000F00D1124EE50FD4F18968D919C91199702
:1019800097FD0196959587958097918780879CC054
:101990008DE08C9FF0018D9FF00D1124EE50FD4FD6
:1019A000C70124E0880F991F2A95E1F79783868362
:1019B0001186108685C08DE08C9FF0018D9FF00D03
:1019C0001124EE50FD4F17821682118610867CC0BE
:1019D00028E130E040E050E060E170E080E090E03D
:1019E0000E946D352DE02C9F20012D9F500C11245D
:1019F00092012E503D4F2901222733272E193F09EE
:101A0000269FA001279F500D369F500D1124D20113
:101A100017965C934E931697D5011296ED91FC9113
:101A200013976084718428E130E040E050E060E189
:101A300070E080E090E00E946D35661A770AF2014E
:101A40007186608641C029E030E040E050E068EFF8
:101A50007FEF8FEF9FEF0E946D352DE02C9F3001BF
:101A60002D9F700C112493012E503D4F3901970189
:101A700086E0220F331F8A95E1F7260F371FD30127
:101A800017963C932E9316972BE030E040E050E001
:101A900060E070E0CB010E946D3565507109F30183
:101AA00071876087033061F018F4023029F00CC0B0
:101AB00085EF800F823040F4F0E22F0E311C07C01A
:101AC00020E1220E311C0FC038E1230E311C0630FC
:101AD000D9F020F40350023078F405C00E3061F4E0
:101AE00080E1C81AD108C701B5E0880F991FBA95DF
:101AF000E1F7C81AD90A08C02EE22E9DC0012F9D19
:101B0000900D1124C80ED91E1E141F047CF4D5019B
:101B100012968D919C911397DC01ED91FC910280BE
:101B2000F381E02D0995C80ED91E12C08DE08C9F5F
:101B3000F0018D9FF00D1124EE50FD4F0190F081CA
:101B4000E02D0280F381E02DC4010995C81AD90A5D
:101B50008DE08C9FF0018D9FF00D1124EE50FD4F14
:101B6000D50112968D919C911397DC0116962D91BB
:101B70003C91179737FF02C02F5F3F4F3595279550
:101B80002C0D3D1D338322838DE08C9FF0018D9FB2
:101B9000F00D1124EE50FD4F3582248206C02196AF
:101BA0003D96C431D10509F0DACDDF91CF910F9187
:101BB000FF90EF90DF90CF90BF90AF909F908F906D
:101BC0007F906F905F904F903F902F9008950F936C
:101BD000CF93DF93EC0108810D3030F4E02FF0E07B
:101BE000E45FFE4F808101C085E08983EA81FB814B
:101BF0002285332727FD3095448155816281738189
:101C0000CE010E94960B88818230C1F5EA81FB816A
:101C10002285332727FD3095448155816281738168
:101C200002E0CE010E94960BEA81FB8122853327D8
:101C300027FD309544815581628173810881CE01F1
:101C40000E94960BEA81FB812285332727FD309580
:101C500044815581628173810881CE010E94960B77
:101C6000EA81FB812285332727FD30954481558108
:101C7000628173810881CE010E94960B88818A302F
:101C800079F4EA81FB812285332721950CF4309584
:101C900044815581628173810AE0CE010E94960BD6
:101CA0008881813090F0833010F0873071F4EA81C0
:101CB000FB812285332727FD309544815581628140
:101CC00073810EE0CE010E94960B888190E08D30EA
:101CD000910550F5FC01E859FF4F0C94CF3740E0D7
:101CE0006EE776E01AC040E068E876E016C040E0B3
:101CF00066E976E012C040E060E376E00EC08BE378
:101D000094E0DF91CF910F910C94843140E066E232
:101D100076E003C040E06CE176E08BE394E0DF9195
:101D2000CF910F910C94512EDF91CF910F91089587
:101D30000F931F93CF93DF93EC0102EF12E0C801E2
:101D40000E94390B035F1F4F83E0063F1807B9F766
:101D50008981882319F0815089831AC08881813054
:101D600011F0883039F441E064E080E294E00E94B0
:101D7000B82005C064E080E294E00E94AF20882390
:101D800039F0CE01DF91CF911F910F910C94E70DA7
:101D9000DF91CF911F910F9108956F927F928F9253
:101DA0009F92AF92BF92CF92DF92EF92FF920F93EA
:101DB0001F93CF93DF935C01DC011296ED91FC91B0
:101DC0001397C280D380D7FE03C0B7E0CB0ED11CDF
:101DD00093E0D594C7949A95E1F78091120490917D
:101DE0001304C81AD90A89E0C81AD108C481D58158
:101DF000D7FD279683E0D595C7958A95E1F7809121
:101E0000100490911104C81BD90B4285FF24F39450
:101E100014160CF4F12CD5010C9110E00D301105C5
:101E200008F0BCC0F801EB58FF4F0C94CF37F50118
:101E30002181293070F44203C001112497FD0196DD
:101E400095958795C80ED91E02EC802E04E0902E41
:101E500002C0812C912C2297612C712C7CC023967E
:101E6000612C712CD7EB8D2ED4E09D2E74C0229660
:101E7000612C712CB8E98B2EB4E09B2E6CC022969D
:101E8000D50111968C91853028F0842F992787FDF4
:101E9000909502C080E090E0C81AD90AFBE56F2E49
:101EA000F4E07F2EA1E78A2EA4E09A2E54C0229659
:101EB000F50121814203C0011124C81AD90A7FE724
:101EC000672E74E0772EEAE88E2EE4E09E2E43C063
:101ED0002396D50111962C914203C001112497FD40
:101EE00003969595879595958795C81AD90A5BE5C8
:101EF000652E54E0752E63E6862E64E0962E2BC088
:101F000023962CE3622E24E0722E3AE4832E34E0F2
:101F1000932E21C02296612C712C9BE2892E94E095
:101F2000992E19C02296612C712C86EA882E84E0A5
:101F3000982E11C0249611E0612E14E0712E0CE051
:101F4000802E04E0902E07C02196612C712CDAE1DE
:101F50008D2ED4E09D2E8114910449F0EF2C00E0E9
:101F600094014C2F6C2D80EB94E00E94A12561140C
:101F70007104C1F060E080EB94E00E94AC21EF2C92
:101F800000E093014C2F6C2D80EB94E00E94A12582
:101F900061E080EB94E00E94AC2104C0612C712CC4
:101FA000812C912CF50180818A3071F58114910486
:101FB00071F08F2D90E0019681709927E82E00E056
:101FC00094014C2F6C2D80EB94E00E94A1256114AC
:101FD0007104D1F060E080EB94E00E94AC21EF2C22
:101FE000F12CFFEFEF1AFF0A81E0E822FF2400E066
:101FF00093014C2F6C2D80EB94E00E94A12561E0B1
:1020000080EB94E00E94AC21D5018C918C30E9F5F5
:1020100060E080EB94E00E94AC21D5011296ED9136
:10202000FC91139711968C9165E00E945A3726E037
:10203000281B4481558157FF02C0495F5F4FC3E0B1
:1020400055954795CA95E1F7809110049091110438
:10205000481B590B4C5F6281738177FF02C0695F37
:102060007F4FB3E075956795BA95E1F780911204BB
:1020700090911304681B790B80EB94E00E94D721A8
:1020800061E080EB94E00E94AC21F50180818B300F
:1020900019F0863009F05BC0D5011296ED91FC91E4
:1020A00013978285E0901204F0901304C0911004FD
:1020B000D091110411966C917481958112813381B4
:1020C000181614F56695669524E0261B472F592FA0
:1020D00057FF02C0495F5F4FA3E055954795AA950A
:1020E000E1F74C1B5D0B4C5F612F732F77FF02C034
:1020F000695F7F4FF3E075956795FA95E1F76E1983
:102100007F096A5F02E01FC0472F592F57FF02C0A7
:10211000495F5F4FE3E055954795EA95E1F74C1B22
:102120005D0B4C5F669566956450812F932F97FDEC
:10213000079673E0959587957A95E1F78E199F0933
:10214000680F02E024E080EB94E00E942222DF91FD
:10215000CF911F910F91FF90EF90DF90CF90BF90A4
:10216000AF909F908F907F906F900895EF92FF9225
:102170000F931F93CF93DF93EC010E94550A8111B7
:102180007EC04A85EE24E39414160CF4E12C2A81D7
:102190003B818E819F81892BA1F04203C001439F27
:1021A000900D112497FD4F96E5E095958795EA955A
:1021B000E1F781509F4F65E070E00E947A37F82E7A
:1021C00001C0F12CE881F9810480F581E02DCE0178
:1021D00009958C01E881F9810280F381E02DCE011F
:1021E00009959C014C815D814F5F5F4F6A817B81C6
:1021F00086EF93E00E943507811109C08885998593
:1022000097FF03C074E0F72E02C0FF24F3948BE025
:10221000F89E9001112426533C4F4C815D8157FF5D
:1022200002C0495F5F4F63E0559547956A95E1F7B6
:102230008091100490911104481B590B6A817B8195
:1022400077FF02C0695F7F4F53E0759567955A9598
:10225000E1F78091120490911304681B790B61508F
:1022600000E080EB94E00E94A125CE010B96DF9167
:10227000CF911F910F91FF90EF900C94CD0EDF91B5
:10228000CF911F910F91FF90EF900895DF92EF9201
:10229000FF920F931F93CF93DF93EC010E94550A97
:1022A000811181C02A85EE24E39412160CF4E12CEE
:1022B0008B85EA81FB81332727FD3095FC80DD800B
:1022C0000091100410911104C0911204D0911304D4
:1022D000811132C02E9FC0012F9F900D3E9F900D07
:1022E000112497FD0F9674E0959587957A95E1F7FF
:1022F00081509F4F65E070E00E947A379AE0899F95
:102300009001112428563C4F4F2D5D2D57FF02C0E0
:10231000495F5F4F63E0559547956A95E1F7401B2C
:10232000510BF7FD379653E0F595E7955A95E1F790
:10233000EC1BFD0B6FEF31C02E9FC0012F9F900D46
:102340003E9F900D112497FD0F9624E0959587955B
:102350002A95E1F781509F4F66E070E00E947A373E
:1023600096E1899F900111242C5E3C4F4F2D5D2DED
:1023700057FF02C0495F5F4FB3E055954795BA9547
:10238000E1F7401B510BF7FD3796A3E0F595E79574
:10239000AA95E1F7EC1BFD0B6CEF6E0F00E080EBF4
:1023A00094E00E94A125DF91CF911F910F91FF90A2
:1023B000EF90DF900895FF920F931F93CF93DF93D9
:1023C000E2EDF1E0C0E0D0E08081811186C08EE0D6
:1023D0008C9F80018D9F100D11240A531E4FFF24E6
:1023E000F394D8011C96FC9226E030E040E050E0E7
:1023F00060E070E0CB010E946D35672B682B692B84
:1024000009F072C08091FE03882309F46DC0F801C1
:10241000F3862EE02C9FC0012D9F900D11248A532E
:102420009E4FFC012385211102C022E001C02AE059
:102430003EE03C9FF0013D9FF00D1124EA53FE4F1A
:102440002587E091F603F091F703F4902EE02C9F9E
:1024500080012D9F100D11240A531E4FF801A081F9
:10246000B1811296ED91FC911397099520E3F29EAC
:10247000F0011124F595E79597FD019695958795BF
:10248000E81BF90BD8011396FC93EE9312978EE09C
:102490008C9F80018D9F100D11240A531E4FF8014F
:1024A0001582148222E030E040E050E060E070E00D
:1024B000CB010E946D3544E1469F9001479F300D4E
:1024C00011242A503109D80117963C932E93169760
:1024D00019961C921E92189711C021963E96C431EF
:1024E000D10509F071CF0AC08EE08C9FF0018D9F5D
:1024F000F00D1124EA53FE4F13868BCFDF91CF915D
:102500001F910F91FF9008952F923F924F925F92EB
:102510006F927F928F929F92AF92BF92CF92DF92F3
:10252000EF92FF920F931F93CF93DF9300D000D0D1
:1025300000D0CDB7DEB79C838B838EEF282E82E050
:10254000382E22EF32E03E832D834DEF52E05A8346
:102550004983D1018C911816A4F0BDE02B0E311CDB
:10256000ED81FE813D96FE83ED8329813A81235FD3
:102570003F4F3A83298332E0231634E0330649F78C
:102580003DC113ED412E11E0512E06EC602E01E00D
:10259000702ED2018C9118160CF023C1ED81FE81B2
:1025A000868197814396879740F4A981BA818C915F
:1025B000863019F08B7F893081F6AD81BE81ED9137
:1025C000FC9111970480F581E02DCD0109954C0116
:1025D000AD81BE81ED91FC9111970280F381E02DD8
:1025E000CD0109955C01ED81FE81C480D580E2803A
:1025F000F380D301ED91FC910480F581E02DC301BE
:1026000009958C01D301ED91FC910280F381E02DBD
:10261000C3010995F30144815581628173819C0155
:1026200086E194E00E94BF2C882309F4DAC0AD81D2
:10263000BE811B968C91863009F490C1893009F4D3
:102640008DC1833009F48AC1ED81FE818385843098
:1026500031F008F487C18B50843008F083C1AD811C
:10266000BE811B96EC91E350EC3040F4F0E0EB5D62
:10267000FE4F2081332727FD309502C021E030E056
:10268000F2018081992787FD9095821B930B8083AF
:1026900018160CF469C0A981BA818C918D3071F53E
:1026A000F301028113810190F081E02D0280F3811A
:1026B000E02DC301099597FD01967C01F594E794FF
:1026C000E00EF11EAD81BE81ED91FC91119702806B
:1026D000F381E02DCD01099597FD0196959587959C
:1026E000ED81FE8122813381E81AF90AE21AF30AA8
:1026F0001E141F0464F401E010E00BC0AD81BE8124
:1027000016968D919C91179718161906A4F30FEF42
:102710001FEF20E230E040E050E068E170E080E050
:1027200090E00E946D35069F9001079F300D169F27
:10273000300D1124F3013783268320EC3FEF4FEF58
:102740005FEF60ED7FEF8FEF9FEF0E946D35D3015C
:1027500019967C936E93189741E06CE476E08BE3D6
:1027600094E00E94512E3DC0E981FA81808184303D
:10277000C1F5D30112960D911C911397ED91FC9127
:102780000280F381E02DC301099597FD019695958F
:102790008795800F911F2091E0023091E102E8EED1
:1027A000FFEFE21BF30B8E0F9F1F181619061CF488
:1027B00021E030E002C02FEF3FEFD30116968D915C
:1027C0009C91179797FF03C0919581959109289F38
:1027D000A001299F500D389F500D1124F3015783FC
:1027E0004683FEE04F0E511C2EE0620E711C3BEE44
:1027F000431632E0530609F0CCCEAFCEAB81BC819C
:102800008C9181508C9381112AC06091F00270915B
:10281000F10280E090E01F921F921F922EE12F9311
:102820005CE3A52EB12CC12CD12C12E3E12EF12CAE
:1028300000E010E020E030E0A9010E948935EB8142
:10284000FC8160830F900F900F900F906A300CF412
:102850006AE0AB81BC816C93CD010E94DB1146EC38
:10286000A42E41E0B42EE12CF12C87010A531E4F17
:10287000F8018485882309F44CC0C5010E94B90879
:10288000D5011496CD90DC9015978091F603909128
:10289000F7030E94F8068C159D050CF03AC0F8016C
:1028A00085851816ACF5E091F603F091F703D49006
:1028B000F501A081B1811296ED91FC911397C501AC
:1028C000099520E3D29EF0011124F595E79597FD37
:1028D000019695958795E81BF90BD5011396FC9306
:1028E000EE93129715961C921E921497F80182850A
:1028F000F4E18F02C001112417969C938E931697D2
:1029000042E068E376E08BE394E00E94512E01C040
:102910001486BEE0EB0EF11CEEE0AE0EB11CF8E149
:10292000EF16F1E0FF0609F0A0CF26960FB6F89457
:10293000DEBF0FBECDBFDF91CF911F910F91FF90F2
:10294000EF90DF90CF90BF90AF909F908F907F904F
:102950006F905F904F903F902F900895E1E0D101EC
:10296000EC9372CEAD81BE8116960D911C91179796
:10297000ED91FC9111970684F785E02DCD01099525
:10298000FC010E9FC0010F9F900D1E9F900D112402
:1029900064E670E00E947A37AD81BE8117967C9321
:1029A0006E9316975CCE0F931F93CF93DF93EC013A
:1029B00019861886E091F603F091F7031491A88127
:1029C000B9811296ED91FC911397CE01099540E3E0
:1029D000149F9001112420533109281B390B4427DF
:1029E00037FD4095542F60E370E080E090E00E9456
:1029F0006D357B836A838091F6039091F7030E9483
:102A0000F8068C01E881F9810480F581E02DCE0182
:102A10000995980120533109281B390B442737FDAC
:102A20004095542F60E370E080E090E00E946D35A7
:102A3000DB017D836C832A813B814091E0025091D0
:102A4000E102421B530B41585F4F4F3F510560F06D
:102A50004091E2025091E302461B570B41585F4FF1
:102A600061E04F3F510508F460E0E091F603F0911A
:102A7000F703849140E3849FC001112495958795C5
:102A80008F5791092817390784F0E49180E3E89F74
:102A9000F0011124F595E795E158FF4FE217F30790
:102AA00024F0A035B1400CF485CF662309F482CF21
:102AB000DF91CF911F910F9108958F929F92AF92C6
:102AC000BF92CF92DF92EF92FF920F931F93CF931B
:102AD000DF93EC010E94B9080C811D818091F603FF
:102AE0009091F7030E94F806801791071CF4CE011D
:102AF0000E94D314C090E202D090E302E090E00282
:102B0000F090E102E881F9810480F581E02DCE01A9
:102B100009958C01E881F9810280F381E02DCE01D5
:102B200009954C815D816A817B81E8E48E2E912C30
:102B3000F0E3AF2EB12C9C0186E194E00E94BF2C03
:102B4000882309F4B6C18091F0029091F1020196B8
:102B50009093F1028093F0028BE394E00E9468313D
:102B6000C090E902D12CE12CF12C2091150430E029
:102B70002F5F3F4F442737FD4095542F61E070E0B1
:102B800080E090E00E946D35109115046C0D7D1D64
:102B90008E1D9F1D212F30E02F5F3F4F442737FDB3
:102BA0004095542F0E94B0376093E902462F50E0C1
:102BB0004D30510590F5FA01EE57FF4F0C94CF3789
:102BC0008FEC92E023C088EC92E020C081EC92E090
:102BD0001DC088EB92E01AC081EB92E017C089EA31
:102BE00092E014C083EA92E011C088E992E00EC03E
:102BF00083E992E00BC08DE892E008C085E892E09E
:102C000005C08EE792E002C089E792E090930A0443
:102C10008093090480E280930B048091FE0381116C
:102C20003FC08091F0029091F1028830910579F0D7
:102C30008C309105F1F0049799F5111131C081E0C4
:102C4000809315048093E90289E692E009C012306E
:102C500038F582E0809315048093E90287E592E0DD
:102C600090930A048093090484E380930B0442E068
:102C700011C080911404811113C081E08093140469
:102C800085E492E090930A048093090484E380939E
:102C90000B0440E062E576E08BE394E00E94512E65
:102CA0008091FE03813009F05CC08091F002909128
:102CB000F1028C30910531F130F48430910549F006
:102CC0000897A1F04EC08E30910541F1409791F1E7
:102CD00048C080911504833008F043C083E080939E
:102CE00015048093E90283E392E02DC080911504DE
:102CF0008430B8F584E0809315048093E90284E27F
:102D000092E021C080911504853058F585E08093CC
:102D100015048093E90281E192E015C080911504C9
:102D20008630F8F486E0809315048093E90281E010
:102D300092E009C080911404823098F482E080937C
:102D400014048FEE91E090930A048093090484E3C5
:102D500080930B0440E062E576E08BE394E00E9410
:102D6000512E8091FE03823009F05CC08091F00208
:102D70009091F1028C30910531F130F4843091055D
:102D800049F00897A1F04EC08E30910541F140976F
:102D900091F148C080911504873008F043C087E066
:102DA000809315048093E9028EED91E02DC080910F
:102DB00015048830B8F588E0809315048093E90203
:102DC00089EC91E021C080911504893058F589E0A3
:102DD000809315048093E90286EB91E015C0809101
:102DE00015048A30F8F48AE0809315048093E90290
:102DF00085EA91E009C080911404833098F483E05F
:102E00008093140483E991E090930A048093090469
:102E100084E380930B0440E062E576E08BE394E08A
:102E20000E94512E8091FE038330A1F58091F00223
:102E30009091F1028E30910589F080319105D1F0A9
:102E40000C9741F5809115048B3020F58BE0809331
:102E500015048093E90284E891E015C0809115047F
:102E60008C30C0F48CE0809315048093E90284E7F1
:102E700091E009C080911404843060F484E0809370
:102E8000140481E691E090930A048093090484E39A
:102E900080930B04CE01DF91CF911F910F91FF9092
:102EA000EF90DF90CF90BF90AF909F908F900C9459
:102EB000D314DF91CF911F910F91FF90EF90DF908E
:102EC000CF90BF90AF909F908F9008954CE956E0BF
:102ED00063E471E086E194E00E949D2A86E194E03B
:102EE0000E94442810922E04089580E890E0909368
:102EF000E1028093E00286E990E09093E302809300
:102F0000E20281E08093E8021092F1021092F00256
:102F10001092EF021092EA02EEEFF2E010823D967C
:102F200084E0E230F807D1F78EED92E09093EC0266
:102F30008093EB028AE08093C501E3EDF1E0DF01CD
:102F400011971C9210823E9682E0EB3EF807B9F78B
:102F50008AEB91E00E94D3141092E90210920F04C0
:102F600010920E0408951F93CF93DF93EC01019606
:102F70000E94F606182FCE010E94F606282F30E098
:102F8000922F8827810F911DDF91CF911F91089576
:102F90000F931F93CF93DF931F92CDB7DEB78C01B2
:102FA000019679830E945C387981672FC8010F9060
:102FB000DF91CF911F910F910C945C380F931F9369
:102FC000CF93DF9362EB7AEC80E090E00E94C81729
:102FD0000FEF13E0C0E2D0E0CE010E94B317F8017A
:102FE000619171918F018617970718F4CE010E94A5
:102FF000C8172296CA32D10579F784E090E00E9482
:10300000F60660911504861720F484E090E00E9493
:103010005C3886E090E00E94F60660911404861702
:1030200040F486E090E0DF91CF911F910F910C94D6
:103030005C38DF91CF911F910F910895FC0181E0E1
:10304000818BB5E0660F771FBA95E1F777836683CA
:1030500080EE9FEF9187808710920B04828993897D
:10306000E091FE03F0E0EE0FFF1FE150FC4F2081E6
:1030700031812817390758F49183808382E591E0E4
:1030800090930A048093090484E380930B040C94C6
:10309000DE170F931F93CF93DF93EC018989811182
:1030A000B7C041E060E080E294E00E94B82088234D
:1030B00039F08FEF8A878E819F8140979F838E831F
:1030C00041E062E080E294E00E94B820882339F079
:1030D00081E08A878E819F8140969F838E834AE01C
:1030E00061E080E294E00E94B820882341F063E030
:1030F00080E294E00E94CE20893208F097C00C81D3
:103100001D818091F6039091F7030E94F8068017C5
:1031100091073CF46A85772767FD7095CE010E9480
:103120001E18E881F9810480F581E02DCE01099512
:103130008C01E881F9810280F381E02DCE010995AF
:103140004C815D814F5F5F4F6A817B819C0186EF7F
:1031500093E00E9435078111188A65E080E294E0CF
:103160000E94AF20882399F1E881F9810480F581DC
:10317000E02DCE0109958C01E881F9810280F3816F
:10318000E02DCE0109954C815D814F5F5F4F6A81D3
:103190007B819C0186EF93E00E943507882331F004
:1031A00080EE9FEF9987888781E009C08889811127
:1031B0000EC080EE9FEF9987888781E0888B8F878C
:1031C00041E062E476E08BE394E00E94512E65E0FA
:1031D00080E294E00E94CE208823A1F065E080E2A6
:1031E00094E00E94CE20853068F48885998597FF09
:1031F00009C02F85222331F02889222349F106971F
:103200009987888788859985181619060CF41F8672
:10321000CE010B960E94980E1A85CE010E94B90825
:103220001A87DF91CF911F910F9108958B858F5F42
:103230006DE00E945A379B871B8A1A8A85E491E0C9
:1032400090930A048093090480E280930B0457CF83
:103250000C97D6CFCF93DF93C0E0D0E0CE010E9491
:10326000F606882321F060E0CE010E945C382196AA
:10327000C11584E0D80791F7DF91CF9108950F939E
:103280001F93CF93DF9380E090E00E94B317823BBF
:103290009A4C31F0DF91CF911F910F910C942A1924
:1032A0000FEF13E0C0E2D0E0CE010E94B317F801A7
:1032B000819391938F012296CA32D105A9F784E0B8
:1032C00090E00E94F6068093150486E090E00E944C
:1032D000F606809314048093FE03DF91CF911F9133
:1032E0000F910895CF93DF93EC01BC01882777FD00
:1032F0008095982F0E9491052091B8044091B404C4
:10330000429FA0011124489F9001499F300D589F72
:10331000300D1124369527958AE2821B8093B904DB
:10332000BE0180EB94E0DF91CF910C9414342F9286
:103330003F924F925F926F927F928F929F92AF9245
:10334000BF92CF92DF92EF92FF920F931F93CF9392
:10335000DF93EC01C884D12C66E0462E65E0562E42
:103360007FE1F72EEAE08E2E912CA12CB12CF5E016
:103370002F2E312C86E194E00E94A2298823D1F3DC
:103380003601660C771CF301E75BFE4F008111816B
:1033900019830883C88622E0C216D104C9F084F4D8
:1033A000C114D104A9F091E0C916D10431F55B82B2
:1033B0004A828EEE94E09D838C831F821E821DC004
:1033C00023E0C216D10469F084E0C816D104A9F440
:1033D0005B824A828EEF94E09D838C8386EF94E03B
:1033E0000AC086ED94E09B838A8386EE94E09D83F9
:1033F0008C838EED94E09F838E83F092BA048DEFE0
:1034000092E00E94721998E19093B90425E220930A
:10341000BA0465EF72E080EB94E00E941434F3018B
:10342000E150FC4F608171814AE050E080EB94E014
:103430000E942535888199810E94F806E881F981EA
:10344000E49160EA7FEF0E947A3743E1460F20E380
:10345000E29FC001112460EA7FEF0E947A37665D27
:10346000980180EB94E00E94422416E02C813D817B
:1034700040E0612F80EB94E00E9442241A5F1E34EA
:10348000A9F716E02A813B81412F60E080EB94E0B0
:103490000E9442242A813B81412F6EE480EB94E01C
:1034A0000E9442241A5F103369F72E813F81211553
:1034B000310591F040E060E080EB94E00E9442240E
:1034C0002E813F81EE24E39400E040E06CE480EB49
:1034D00094E00E94A12510C02C813D8140E060E075
:1034E00080EB94E00E9442242C813D8140E06EE418
:1034F00080EB94E00E9442248091140490E0C8166E
:10350000D90609F040C0F301E150FC4F8081918160
:103510008430910568F08830910560F08C30910519
:1035200058F08E30910550F0409768F510E107C0D3
:1035300014E005C018E003C01CE001C01EE08BE2EF
:103540008093BA048CE08093B9046091D3047091A5
:10355000D4048091D5049091D604A50194010E94D1
:103560008E37643071058105910568F067EE72E071
:1035700080EB94E00E9414344AE050E0612F80EB2D
:1035800094E00E941E358091140490E08C159D05F6
:103590007CF56091D3047091D4048091D50490910E
:1035A000D604A50194010E948E376430710581050F
:1035B0009105F0F061E080EB94E00E94AC2107E01F
:1035C0002CE14FE06CE180EB94E00E94222260E06D
:1035D00080EB94E00E94AC218DE18093B90480E1FE
:1035E0008093BA046FED72E080EB94E00E94143493
:1035F00064E080E294E00E94AF208823D1F08091C3
:10360000140490E08C159D05A4F0DF91CF911F91DB
:103610000F91FF90EF90DF90CF90BF90AF909F9071
:103620008F907F906F905F904F903F902F900C9471
:10363000751762E080E294E00E94AF20882331F0A9
:10364000C6010196B1010E947A376C0160E080E208
:1036500094E00E94AF20882331F0C6010496B101A6
:103660000E947A376C0166E080E294E00E94AF200D
:10367000811108C065E080E294E00E94AF208823B9
:1036800009F478CE0E94661775CE86E194E00E9418
:10369000582C0E943F1981E08093AF040E94661766
:1036A00086EF93E00C949719FF920F931F93CF939B
:1036B000DF93C0910B04CC2309F454C0CC3010F438
:1036C000CC5001C0C0E06091090470910A048827C1
:1036D00077FD8095982F0E949105D091B404909128
:1036E000B804D99FD02D1124D89FD02D112481E06A
:1036F0008093B80461E080EB94E00E94AC211FEF5E
:103700001C0FFD2EF6940091B5040E5F22E02D0FE4
:1037100068E26F19412F80EB94E00E94FA2160E08B
:1037200080EB94E00E94AC210091B5040F5F21E092
:103730002D0F69E26F19412F80EB94E00E94222245
:1037400061E080EB94E00E94AC21C093BA048091C8
:10375000090490910A040E94721980910B0481500F
:1037600080930B04DF91CF911F910F91FF900895EB
:10377000CF92DF92EF92FF920F931F93CF93DF933D
:10378000C090E002D090E1028091BC019091BD0117
:1037900048968C199D09EC016897D7FD2796E3E0C0
:1037A000D595C795EA95E1F7E090E202F090E30243
:1037B0008091BE019091BF0148968E199F098C019E
:1037C0000452110917FF02C0095F1F4F73E01595DE
:1037D00007957A95E1F7CC9FB001CD9F700D700DE4
:1037E0001124009FC001019F900D900D1124680FBE
:1037F000791F882777FD8095982F0E9404360E94B4
:10380000F7360E94D1359B01653171050CF44EC02D
:10381000F6017896F7FD379653E0F595E7955A95BA
:10382000E1F78091120490911304E81BF90BCE018B
:1038300064E0880F991F6A95E1F7B9010E947A3711
:10384000E60FF71FC701849697FD07967C0193E06A
:10385000F594E7949A95E1F7809110049091110402
:10386000E81AF90AC80144E0880F991F4A95E1F760
:10387000B9010E947A37E60EF71E17FF02C0095FF2
:103880001F4F83E0159507958A95E1F70E0DD7FD3B
:103890002796B3E0D595C795BA95E1F72C2F2E0F53
:1038A0004E2D6E2F80EB94E00E944B22DF91CF9142
:1038B0001F910F91FF90EF90DF90CF900895CF93DD
:1038C000DF9386EF93E00E94B4078AEB91E00E94B9
:1038D000550A81112CC04091BE015091BF0157FF84
:1038E00002C0495F5F4FA3E055954795AA95E1F760
:1038F0008091100490911104481B590B6091BC01F8
:103900007091BD0177FF02C0695F7F4FF3E075954D
:103910006795FA95E1F78091120490911304681B62
:10392000790B2CE033E080EB94E00E944224C2ED5E
:10393000D1E08881882321F0CE010C970E944611A6
:103940002E9682E0CA3ED807A1F78EED92E00E9443
:10395000B6108091EF02811105C08091FE038111A4
:103960000E94B81BCDEFD2E088818D3029F462E04F
:1039700080EB94E00E94AC218981882361F08881EA
:103980008C3029F462E080EB94E00E94AC21CE01FF
:103990000B970E94DE0A61E080EB94E00E94AC216C
:1039A0002D9684E0C130D807F9F640E061E080EB65
:1039B00094E00E94B0216091F0027091F1024AE01F
:1039C00050E080EB94E00E942B35DF91CF910C9476
:1039D000541B86E194E00E94A2298823D1F30E941F
:1039E0005F1C40E061E080EB94E00E94B021109207
:1039F000B9041092BA0467E371E080EB94E00E948E
:103A0000543468E271E080EB94E00E9454346EE13B
:103A100071E080EB94E00E94543466E080E294E030
:103A20000E94AF2081111FC065E080E294E00E94F7
:103A3000AF20882371F28091F0029091F102E09121
:103A4000FE03F0E0EE0FFF1FE150FC4F20813181BB
:103A50002817390710F4918380830E94DE1786EFC0
:103A600093E00C94971908954F925F926F927F9212
:103A70008F929F92AF92BF92CF92DF92EF92FF927E
:103A80000F931F93CF93DF9386E194E00E94A229C6
:103A9000882309F4FEC166E080E294E00E94AF2032
:103AA00081110E94E91C8AEB91E00E945D158EED68
:103AB00092E00E94491885EC91E00E9484120E94D5
:103AC000DE17E091F603F091F703849120E3829FE3
:103AD000C001112463E0880F991F6A95E1F78535CD
:103AE00091052CF4109213041092120436C08091A8
:103AF000E0029091E1029C01285E3F4F37FF02C037
:103B0000295F3F4F53E0359527955A95E1F72A52A3
:103B1000310937FD1CC0849140E3849FC00111240A
:103B200043E0959587954A95E1F7835591092817C4
:103B300039077CF0249180E3289F9001112403E051
:103B4000359527950A95E1F72455310902C020E003
:103B500030E03093130420931204CF010E94F80642
:103B600013E0880F991F1A95E1F7C1972CF4109272
:103B700011041092100442C02091E2023091E3023D
:103B8000C901849697FD0796D3E095958795DA95B8
:103B9000E1F74897909311048093100497FD26C095
:103BA0008091F6039091F7030E94F806409110046B
:103BB0005091110497FD07969C01C3E03595279518
:103BC000CA95E1F7225331094217530794F08091C7
:103BD000F6039091F7030E94F80697FD0796B3E06D
:103BE00095958795BA95E1F7C39704C080E090E07A
:103BF00001C0CA01909311048093100480910E04B7
:103C000090910F04181619060CF047C00197909375
:103C10000F0480930E0422E030E040E050E06FEFAC
:103C20007FEFCB010E946D359B01AC01C090120467
:103C3000D0901304EE24D7FCE094FE2CA0910C0449
:103C4000B0910D040E94E037C60ED71EE81EF91E83
:103C5000D0921304C092120422E030E040E050E021
:103C60006FEF7FEFCB010E946D359B01AC01C090DF
:103C70001004D0901104EE24D7FCE094FE2CA09107
:103C80000C04B0910D040E94E037C60ED71EE81E4A
:103C9000F91ED0921104C09210040E945F1CC6EC61
:103CA000D1E0A3ED4A2EA1E05A2E612C712CC090D8
:103CB000E202D090E302E090E002F090E102E881BD
:103CC000F9810480F581E02DCE0109958C01E88110
:103CD000F9810280F381E02DCE0109954C815D814F
:103CE0006A817B81E8E48E2E912CF0E3AF2EB12C1B
:103CF0009C0186E194E00E94BF2C8823C9F1F20167
:103D000080811816ACF581E08093EF028EE0869DED
:103D1000F001879DF00D1124EA53FE4F02811381BB
:103D20000190F081E02D0280F381E02DCE01099514
:103D300097FD019695958795800F911F2091E00240
:103D40003091E102821B930B4897181619061CF458
:103D50006FEF7FEF02C061E070E08EED92E00E94B5
:103D60001E184EEF642E42E0742EC2EFD2E019C04E
:103D7000FFEF6F1A7F0A2E962EE0420E511C44E18F
:103D80006416710409F093CFECCF8B858B3071F002
:103D9000FDE06F0E711C2D9622E0621624E0720683
:103DA00071F1F3018081181684F3F2CFC090E20222
:103DB000D090E302E090E002F090E102E881F98126
:103DC0000480F581E02DCE0109958C01E881F9810F
:103DD0000280F381E02DCE0109954C815D816A81DD
:103DE0007B8128E4822E912C30E3A32EB12C9C0100
:103DF00086E194E00E94BF2C811140C0C9CF809120
:103E0000EF02882309F445C080910B04811109C099
:103E100084ED92E090930A048093090480E28093F9
:103E20000B04C4E186E194E00E94A2298823D1F327
:103E30008EED92E00E94491885EC91E00E94841278
:103E40000E945F1CC15091F4DF91CF911F910F919F
:103E5000FF90EF90DF90CF90BF90AF909F908F90AA
:103E60007F906F905F904F900C94751766E080E2A2
:103E700094E00E94AF208823A9F2E6CFF3013297A5
:103E80006081772767FD70958EED92E00E941E1885
:103E90007FCFDF91CF911F910F91FF90EF90DF9037
:103EA000CF90BF90AF909F908F907F906F905F90DA
:103EB0004F9008951092B3041092B2048FEA91E0EB
:103EC0009093B1048093B004E2EFF2E087E591E0D3
:103ED000918380833D9623E0E63FF207C9F78DE6A4
:103EE00091E09093DF028093DE02E6ECF1E083E85C
:103EF00091E0918380833E9622E0EE3DF207C9F780
:103F000089E991E09093BB018093BA010895CF9322
:103F1000CFB7F8948091E904811127C0E4EAFAE070
:103F20008491E0E9FAE09491E82FF0E0EE0FFF1FB2
:103F3000EE53F54FA591B4918C91892321F461E062
:103F40008AE00E94673361E08AE00E942E338CB5DC
:103F500080618CBD8CB580648CBD61E08DE00E9479
:103F60002E3361E08BE00E942E338091E9048F5F55
:103F70008093E904CFBFCF91089521E0FC01208315
:103F8000089570E085E00C94A632AF92BF92CF9274
:103F9000DF92EF92FF920F931F93CF93DF93EC0189
:103FA00089819A812FE0289F8001299F100D11247B
:103FB00085E10E948932800F911F24E096958795B4
:103FC0002A95E1F79A8389832881222391F1AC8194
:103FD000AD80B12CC12CD12CE885F9857F0100E0A2
:103FE00010E06E817F819B0140E050E086179707CB
:103FF00028F0BC01E817F90708F4BF0180E090E061
:104000001F921F921F92AF930E9489356B830F906E
:104010000F900F900F9070E085E0DF91CF911F918E
:104020000F91FF90EF90DF90CF90BF90AF900C94E6
:10403000A632DF91CF911F910F91FF90EF90DF900B
:10404000CF90BF90AF900895FC018CE39FE09383E5
:10405000828384E0818381E084870895CF93DF9316
:10406000EC018C819D81892B81F18C858F7151F5BB
:1040700084E10E948932BC01882777FD8095982FC2
:104080000E94043626EE3FE34EEC50E40E94903648
:104090000E94D6359B017B836A836115710581F08F
:1040A00084E08983FE0140E08481958128173907E7
:1040B00010F449830AC04F5F32964430A9F702C01A
:1040C0008FEF89838C858F5F8C87DF91CF910895E7
:1040D000FC0188E0808389E0818387E0828386E039
:1040E000838384E0848382E0858381E186830895ED
:1040F000DF92EF92FF920F931F93CF93DF937C0198
:10410000EC0100E010E0DD24DA9462E088810E9496
:104110002E3388810E949D33F701E00FF11F892B18
:1041200021F487818F5F878308C08781882349F0C6
:104130008F3F11F4178201C0D78260E088810E940E
:104140002E330F5F1F4F219607301105F1F6DF91D7
:10415000CF911F910F91FF90EF90DF900895FC0198
:10416000E60FF11D81E09781913009F080E008951C
:10417000262F30E0FC01E20FF31F8781423028F444
:1041800081508E3F48F080E008958F3FE1F3642F27
:104190000E945A379130B9F781E00895860F911D3A
:1041A000FC0187818F3F09F480E008958EBD0000F7
:1041B0000DB407FEFDCF8EB50895DC01643508F01F
:1041C00053C0403308F050C090968C919097342F94
:1041D000359535953595E62FFF27E7FDF095242F8A
:1041E0002770823099F4DF01A651BB4F84E5380275
:1041F000A00DB11D11248C9190E0022E02C0959566
:1042000087950A94E2F78095817009C0833039F46C
:1042100046271C968C91482740FF03C014C081118B
:1042200012C084E53802E00DF11D1124E651FB4F68
:1042300081E090E0022E01C0880F0A94EAF7809591
:104240009081982310C084E53802E00DF11D1124FF
:10425000E651FB4F81E090E0022E01C0880F0A94E6
:10426000EAF79081982B908308951F93CF93DF9363
:10427000EC01162FF89460E08F850E9467338889DF
:1042800018161CF460E00E946733812F0E94D6202C
:10429000888918161CF461E00E9467337894DF91D6
:1042A000CF911F91089528EF31E0EAEEF4E0DF01AD
:1042B000A9011D9241505040E1F7DC0119961C9272
:1042C00019971A961C920895DF92EF92FF920F931E
:1042D0001F93CF93DF93EC018C858F5F8C878AEEE1
:1042E000E82E84E0F82ED12C6D2D6064CE010E9462
:1042F000352160E8CE010E94352161E08F850E9462
:104300006733888918161CF460E00E94673300E068
:1043100010E0F701E00FF11F80810E94D6200F5FAF
:104320001F4F04351105A9F7888918161CF461E0A0
:104330000E946733D39484E5E80EF11C86E0D8121E
:10434000D3CF60E4CE01DF91CF911F910F91FF9009
:10435000EF90DF900C943521FC0160A361A30895D8
:10436000FC0160A341A30895CF92DF92FF920F93C7
:104370001F93CF93DF931F92CDB7DEB76C01062F4B
:10438000F42E10E0121754F4412F4F0D602FC60188
:1043900029830E94DD201F5F2981F4CF0F90DF91D8
:1043A000CF911F910F91FF90DF90CF900895CF9202
:1043B000DF92FF920F931F93CF93DF931F92CDB79E
:1043C000DEB76C01062FF42E10E0121754F4612FA3
:1043D000600F4F2DC60129830E94DD201F5F2981B8
:1043E000F4CF0F90DF91CF911F910F91FF90DF904D
:1043F000CF900895EF92FF920F931F93CF93DF9387
:10440000EC01F62E142FE22E0E94D7214FEF400F21
:10441000410F2E2D6F2DCE010E94D721202F412F2D
:104420006F2DCE010E94B4216FEF6E0D6F0D202F06
:10443000412FCE01DF91CF911F910F91FF90EF900F
:104440000C94B421DF92EF92FF920F931F93CF93BE
:10445000DF93EC01E62ED22EF42E112707FD1095E6
:10446000040F111D47FD1A958F2D992787FD9095F3
:104470008017910744F42D2D4F2D6E2DCE010E94F3
:10448000D721F394F1CFDF91CF911F910F91FF903E
:10449000EF90DF900895AF92BF92CF92DF92EF92AC
:1044A000FF920F931F93CF93DF93EC01162FF42EFF
:1044B000E22EA02FBB27A7FDB095A41BB10947FD95
:1044C000B395B7FF03C0B195A195B109EE2DFF27B4
:1044D000E7FDF095E11BF10917FDF395F7FF03C028
:1044E000F195E195F109BB24B394EA17FB0714F0A9
:1044F000B12C06C08E2DE02E082F812F1F2DF82EF7
:10450000E11634F48F2DF02E082F812F1E2DE82E6A
:10451000CE2CC11AE02FFF27E7FDF095EF19F10926
:10452000F7FCF395F7FF03C0F195E195F109AE2E85
:10453000DC2CC7FE03C0DD24D394DC0CD594F0162C
:1045400014F401E00FC00FEF0DC0BB2071F0412F3C
:104550006F2DCE010E94DD20DA18D7FE02C0F00ECA
:10456000DC0C1F5FE1168CF703C04F2D612FF1CFDC
:10457000DF91CF911F910F91FF90EF90DF90CF903F
:10458000BF90AF9008958F929F92AF92BF92CF92BB
:10459000DF92EF92FF920F931F93CF93DF93EC0183
:1045A000E62ED42E122FCC24C394C21AB22EB1946C
:1045B000BB0CF12C802F8470A82E802F8270982E37
:1045C000802F8870882E0170F1160CF04DC0C7FC4A
:1045D00004C01150B394B394CB0CF3948F2D880F77
:1045E0008F5FC80EAA2071F0412F4D0D6F2D6E0DFB
:1045F000CE010E94DD204F2D4D0D612F6E0DCE019D
:104600000E94DD20992071F04D2D411B6F2D6E0D04
:10461000CE010E94DD204D2D4F19612F6E0DCE0170
:104620000E94DD20882071F04F2D4D0D6E2D611BF5
:10463000CE010E94DD20412F4D0D6E2D6F19CE0150
:104640000E94DD20002309F4BFCF4D2D4F196E2DA0
:10465000611BCE010E94DD204D2D411B6E2D6F1977
:10466000CE010E94DD20B0CFDF91CF911F910F913D
:10467000FF90EF90DF90CF90BF90AF909F908F9082
:1046800008958F929F92AF92BF92CF92DF92EF9256
:10469000FF920F931F93CF93DF93EC01B62EA42EBE
:1046A000122FDD24D394D21AC22EC194CC0CFF2435
:1046B000F394802F8170882E992493949E0C02701D
:1046C0008FEF8F0D8117C4F5D7FC04C01150C39430
:1046D000C394DC0C8F2D880F8F5FD80E882099F043
:1046E000212F220F290D4A2D411B6F2D6B0DCE015D
:1046F0000E94B42123E02E0D4A2D4F19612F6B0D1E
:10470000CE010E94B421002399F0212F220F290D00
:104710004A2D411B6B2D6F19CE010E94B42123E05D
:104720002E0D4A2D4F196B2D611BCE010E94B42115
:10473000F394E394E394C4CFDF91CF911F910F9151
:10474000FF90EF90DF90CF90BF90AF909F908F90B1
:1047500008959F92AF92BF92CF92DF92EF92FF9215
:104760000F931F93CF93DF93EC01B62EF42EA22E5E
:10477000DE2CD194DD0C9D2C920E1E2D160F292DB2
:10478000612F0E94D721CC24CA94C00ECF0C292DB2
:104790004C2D612FCE010E94D721D00EFE0C2D2D65
:1047A0004F2D6B2DCE010E94B421BA0C6FEF6B0D13
:1047B0002D2D4F2DCE010E94B42101E02E2D4F2D25
:1047C000612FCE010E94C322DE2CD094DB0C02E0CC
:1047D0002E2D4F2D6D2DCE010E94C322CE1804E048
:1047E0002E2D4C2D6D2DCE010E94C32208E02E2DC2
:1047F0004C2D612FCE010E94C322DF91CF911F91DA
:104800000F91FF90EF90DF90CF90BF90AF909F906F
:104810000895AF92BF92CF92DF92EF92FF920F93E3
:104820001F93CF93DF93EC01A62EC42EB22EF02E51
:104830001E2DE194EE0CD12ED60E2E2D2B0D6D2DAE
:104840000E942222FA94FE0CC10E6FEF6A0D6B0DCE
:10485000611BEF2C01E0212F4C2DCE010E94412342
:1048600002E0212F4C2D6D2DCE010E944123DF91BE
:10487000CF911F910F91FF90EF90DF90CF90BF905D
:10488000AF9008956F927F928F929F92AF92BF9256
:10489000CF92DF92EF92FF920F931F93CF93DF930C
:1048A000F901A49031965491FC01F0A064350CF00C
:1048B0000CC1BB24A7FCB094A62FBB27A7FDB095C5
:1048C000FD01EA0DFB1D1E161F060CF0FEC0403355
:1048D0000CF0FBC0C52E042F112707FD1095E80131
:1048E000C50FD11D57FDDA951C161D060CF0EDC045
:1048F000E90122969501295F3F4F37FF02C0295FEA
:104900003F4F73E0359527957A95E1F747FF0AC049
:10491000C52EC40E209FA001219F500D1124C41B41
:10492000D50B40E00C2D112707FD1095040F111D2C
:1049300047FD1A95013311051CF070E3C72EC41A08
:1049400067FD60E0E535F10514F0E4E5F0E01E2FC9
:10495000FC0174857427862F992787FD9095FC01AB
:10496000EA1BFB0BDF015F01F7E0AF22BB24E0E8AD
:10497000F0E002C0F595E795AA94E2F70E2FB7FD97
:10498000179653E0B595A7955A95E1F7AC0FBD1F63
:10499000E42FE77051E001C0550FEA95EAF745951D
:1049A00045954595E4E54E02800D911D11248651F3
:1049B0009B4F40E0DD24C7FCD094BB24B394332745
:1049C000E42FF0E0EC15FD050CF07FC0FD01E49054
:1049D000F1E0FF1219C0EC01A02EFD01862E881A0D
:1049E0009C2E980C911608F067C09E2C9A2019F006
:1049F0009880952A9882A69429F43196E490689438
:104A0000AA24A7F82196ECCFF1101BC0752E709444
:104A1000EC01A02EFD01862E881A9C2E980C911672
:104A200008F04AC09E2C9A2019F09880972098820E
:104A3000A69429F43196E4906894AA24A7F82196C4
:104A4000ECCFE3E0FE1631F0EC01A02EFD01862E46
:104A5000881A2EC0752E7094962EEC01A02EFD01A2
:104A60009116B0F48E2C8A2049F08880692C672634
:104A700060FE02C0852A01C087208882A69429F49E
:104A80003196E4906894AA24A7F893942196E8CFED
:104A90007B2512C09E2C9A2019F09880952698822A
:104AA000A69429F43196E4906894AA24A7F8219654
:104AB0009C2E980C911670F3550F19F48C5A9F4F39
:104AC00051E04F5FA20FB31F7BCFDF91CF911F91BA
:104AD0000F91FF90EF90DF90CF90BF90AF909F909D
:104AE0008F907F906F900895FB01A491842F90E0A8
:104AF000E3E095958795EA95E1F70296B0E0179681
:104B0000F3E0B595A795FA95E1F72A9FF0012B9F61
:104B1000F00D11248E0F9F1F860F971FFC018491AB
:104B2000282F30E0477080E890E002C09595879587
:104B30004A95E2F72823392381E0232B09F480E00A
:104B400008952F923F924F925F926F927F928F9231
:104B50009F92AF92BF92CF92DF92EF92FF920F930C
:104B60001F93CF93DF93CDB7DEB72A970FB6F89494
:104B7000DEBF0FBECDBF6C01262E542F01111CC00D
:104B8000E1101AC02A960FB6F894DEBF0FBECDBF53
:104B9000DF91CF911F910F91FF90EF90DF90CF9019
:104BA000BF90AF909F908F907F906F905F904F904D
:104BB0003F902F900C944224F901849131963490C7
:104BC000B9016E5F7F4F7A836983A82EB12C95015E
:104BD000295F3F4FB3E035952795BA95E1F73A87BE
:104BE000298703702FEF280F522E10E07FEF730DEF
:104BF000832D90E09C838B83812F992787FD90954F
:104C00008A159B050CF071C0812F17FF02C087E049
:104C1000810F682E659465946594812F877887FF4E
:104C200003C08150886F8F5FA0E88A2E912C02C04C
:104C3000959487948A95E2F7472EF12C772467FCA8
:104C400070948F2D992787FD9095EB81FC818E17AD
:104C50009F070CF047C0A985BA858A9FF0018B9FFA
:104C6000F00D9A9FF00D1124E60DF71D89819A81B0
:104C7000E80FF91FE491F0E0E821F921EF2B79F139
:104C8000023039F0033041F0013049F4452D6F2DE9
:104C900008C0652D442D05C0642D412F02C04F2D45
:104CA000612FEE2069F03E2D3370E0FE03C0922F9D
:104CB000961B692FE1FE05C0A32DA41B4A2F01C03E
:104CC00030E0620D450FC6012E833D835F837887F8
:104CD0000E94DD203D81E32E78855F812E81F39453
:104CE0004A94AFCF1F5F5A9487CF2A960FB6F89495
:104CF000DEBF0FBECDBFDF91CF911F910F91FF900F
:104D0000EF90DF90CF90BF90AF909F908F907F906B
:104D10006F905F904F903F902F900895DC01FB01C2
:104D200084918F5F14968C9314973196E491EF5F82
:104D30001596EC9315976E5F7F4F5F967C936E93FD
:104D40005E970895EF920F93CF93DF93EC014E8718
:104D50006D872F87E98A088B81E0888788A319A24D
:104D60008F836EE877E0CE010E948E260E94871F17
:104D70008CB58F7D8CBD8CB58C7F81608CBD8DB5E5
:104D800081608DBD8CB58C608CBD61E08E850E948C
:104D90002E3361E08D850E942E3361E08F850E9465
:104DA0002E33898918161CF461E00E942E338889FD
:104DB00018161CF461E00E942E33898918166CF4D1
:104DC00060E00E9467336AE070E080E090E00E945B
:104DD000263261E089890E9467338D85992787FD96
:104DE0009095FC01E656F54FE491F0E0EE0FFF1FC1
:104DF000E854F54F259134913D8B2C8BFC01EA57FB
:104E0000F54F84918B8F8E85992787FD9095FC01B6
:104E1000E656F54FE491F0E0EE0FFF1FE854F54F32
:104E2000259134913B8B2A8BFC01EA57F54F8491F5
:104E30008A8F8889992787FD9095FC01E656F54F62
:104E4000E491F0E0EE0FFF1FE854F54F2591349107
:104E50003F8B2E8BFC01EA57F54F84918C8F8F8509
:104E6000992787FD9095FC01E656F54FE491F0E017
:104E7000EE0FFF1FE854F54F25913491398F288F9D
:104E8000FC01EA57F54F84918D8F61E2CE010E94BB
:104E9000352164E1CE010E9435218B8587FF02C058
:104EA0008FE78B876B856068CE010E94352160E2B9
:104EB000CE010E9435216CE0CE010E943521CE0149
:104EC000DF91CF910F91EF900C9464216F927F92BC
:104ED0008F929F92AF92BF92CF92DF92EF92FF920A
:104EE0000F931F93CF93DF93EC01162FF42EB02E68
:104EF000E8A064350CF081C08FE284170CF47DC00B
:104F0000EC81F0E031970E9FC0010F9F900D1124AE
:104F1000860F911D67FD9A95181619060CF06DC045
:104F20008D81809FC0011124840F911D47FD9A95AA
:104F3000181619060CF061C0A62E962EC22ED12C82
:104F40008A2D811B992787FD90952C8130E082174F
:104F500093070CF051C0215031098217930779F063
:104F6000C29ED001C39EB00DD29EB00D1124A80FD9
:104F7000B91FEE8DFF8DEA0FFB1F749001C0712CDD
:104F80008F2C6F2C282D2F19332727FD30958D81DD
:104F900090E0281739076CF570FE11C081E0B81257
:104FA00006C0482D6A2DCE010E94DD201EC00B2DAB
:104FB0002B2D462D692DCE010E94222216C089A1DB
:104FC00098A1891791F088A381E0B81206C0482DF6
:104FD0006A2DCE010E94DD2007C00B2D2B2D462D02
:104FE000692DCE010E942222E8A276946B0C839454
:104FF000C9CF9B0CA394A4CFE8A2DF91CF911F91BE
:105000000F91FF90EF90DF90CF90BF90AF909F9067
:105010008F907F906F9008950F93CF93DF93EC0163
:10502000262F6A3039F42D8198858A85299F800D35
:10503000112422C06D3011F108854A8569850E94CE
:10504000662748855C812985549F200D1124298776
:105050008F81882399F0332727FD309584E590E0F0
:10506000459F801991091124821793073CF49D8173
:105070008A85499F800D11248A87198681E090E0F6
:10508000DF91CF910F910895CF92DF92EF92FF922F
:105090000F931F93CF93DF93EC010A8D1B8D009527
:1050A00010950E9403326B017C010E940332C09470
:1050B000D094E094F0946095709580959095C69EFC
:1050C0009001C79E300DD69E300D1124209F700197
:1050D000219FF00C309FF00C11240980DA81C02D43
:1050E0000E940332CE01860F971F8E0D9F1DDF9108
:1050F000CF911F910F91FF90EF90DF90CF900C9484
:1051000041358F929F92AF92BF92CF92DF92EF92F2
:10511000FF920F931F93CF93DF93EC015C0182ED1D
:10512000A80EB11CD5018C91882309F44DC08C3098
:1051300018F41CE0181B01C010E0FE01EE55FF4FF3
:1051400081E080836E01BAE9CB0ED11C60E0C6011C
:105150000E94AC214E01EFE98E0E911CD4018C917E
:1051600003E0080F9DE2F92E4F2D481B410F23E06D
:10517000E22E24E560E0C6010E94092461E0C60138
:105180000E94AC21F401808103E0080F4F2D481BE1
:10519000410F24E560E0C6010E94A923FE01ED5500
:1051A000FF4F84E080833196D4018C91181B115DF0
:1051B0001083C053DF4F68817981C6010E94143487
:1051C000F501808181508083DF91CF911F910F91F4
:1051D000FF90EF90DF90CF90BF90AF909F908F9017
:1051E0000895DF92EF92FF920F931F93CF93DF9377
:1051F000EC018C8D9D8D892B09F49CC08E01065687
:105200001F4F40E061E0C8010E94B02185E5FE012A
:10521000E256FF4F9081891B35968083319610822C
:10522000698D613009F462C028F0888D653008F01E
:1052300074C06FC0CE0185960E94EB2E81E0FE0106
:10524000EE55FF4F80836EE877E0C8010E948E26FE
:105250001D8E1C8EFE01E056FF4F108238EAD32EC1
:105260007E018AE0E80EF11CCE010E94A22988236B
:10527000D9F36DE779E0C8010E9414346A8D7B8D03
:105280004AE050E0C8010E94253568E679E0C8018F
:105290000E9414346D2D62956F7070E04AE050E00A
:1052A000C8010E9409356DE579E0C8010E941434F7
:1052B00064E0C7010E94AF2081113CC0DA94A1F6DE
:1052C00060E0CE010E94C11F83B7817F846083BFED
:1052D00083B7816083BF83B7816083BF889583B7BD
:1052E0008E7F83BF83B78E7F83BFBECFC354DF4F14
:1052F000488159816A817B814F70552766277727BE
:10530000483051056105710510F467E009C068E790
:1053100007C0882379F06B5F03C0882359F06FE2E0
:10532000C801DF91CF911F910F91FF90EF90DF9017
:105330000C943934DF91CF911F910F91FF90EF9032
:10534000DF9008958F929F92AF92BF92EF92FF925B
:105350000F931F93CF93DF93EC017C010CECE00ED5
:10536000F11CF70180809180A280B3800E94F73108
:1053700095018401061B170B280B390BB901A801F5
:105380005E011BECA10EB11CF501808190E0A0E054
:10539000B0E08E0109531F4F84179507A607B70782
:1053A00050F4F80180819181A281B381892B8A2BED
:1053B0008B2B09F040C0F80180819181A281B381DB
:1053C000892B8A2B8B2BA9F57E01F5E2EF0EF11CC0
:1053D000C7010E94DB2EC7010E94952FC7010E94C2
:1053E000B930CE010E948128CE010E94F1287E01B1
:1053F0002AE9E20EF11CC7010E946421FE01E05679
:10540000FF4F8081811103C0C7010E9453210E9478
:105410000332F8016083718382839383FE01EF532B
:10542000FF4FCD53DF4F28813981621B730B71838E
:10543000608380E036C00E94F731F5012081620F61
:10544000711D811D911DF701608371838283938398
:10545000FE01E354FF4F40815181628173814F5FB0
:105460005F4F6F4F7F4F4083518362837383F80197
:1054700010821182128213820E940332FE01ED53C8
:10548000FF4F6083718382839383CE010E94C51F87
:10549000CE010A960E947820CE0148960E942E20C6
:1054A00081E0DF91CF911F910F91FF90EF90BF901E
:1054B000AF909F908F9008950F931F93CF93DF939A
:1054C0008C01EC01C656DF4FCE010E94532165E3EB
:1054D00079E0CE010E941434CE010E9464218CB583
:1054E00083608CBD8DB58E7F8DBD83EB91E0EEEF3B
:1054F000FFE30995F801E056FF4F108260E179E083
:10550000CE010E945434CE010E946421065F1F4FD9
:10551000C8010E94782064E0C8010E94AF20811178
:1055200007C062E370E080E090E00E942632F0CF96
:10553000DF91CF911F910F9108952F923F924F923B
:105540005F926F927F928F929F92AF92BF92CF9213
:10555000DF92EF92FF920F931F93CF93DF93CDB71C
:10556000DEB729970FB6F894DEBF0FBECDBF99877F
:1055700088871B012A013C018CEB680E711CF3012A
:105580008081882309F402C181E0E885F985EE5520
:10559000FF4F8083E885F985EF55FF4F1082E8853E
:1055A000F985E056FF4F1082E885F985108E8F014E
:1055B00006561F4F61E0C8010E94AC21888599857D
:1055C00081569F4F9C838B83C884D98493EAC90EEC
:1055D000D11CE884F984E4EAEE0EF11C88859985F3
:1055E00082569F4F9A838983E885F985E354FF4F5C
:1055F000FE83ED8388849984FAE08F0E911CA88441
:10560000B98485E2A80EB11C888599850E94A229DB
:105610008823D1F3F1018491882321F0EB81FC816F
:10562000508101C050E02FE939E040E060E0C8015E
:105630005F830E9442245F814114510439F04CE0A1
:10564000450F920160E0C8010E944224F6011082D9
:105650008CE0F7018083B101C8010E941434E98114
:10566000FA819081892F880F890F81958D5AF601D3
:105670008083EB81FC819081892F880F890F819530
:10568000835DF7018083ED81FE81808184FF03C00B
:105690006BE979E002C067E979E0C8010E945434FF
:1056A000E981FA819081892F880F890F81958D5A20
:1056B000F6018083F70180818F5F8083E885F9851B
:1056C00082A9882319F063E979E002C06FE879E0E4
:1056D000C8010E945434E981FA819081892F880F92
:1056E000890F81958D5AF6018083F70180818F5F44
:1056F00080836BE879E0C8010E94543465E0C401FE
:105700000E94AF20882351F0E885F98562A96F5F78
:10571000C5010E94A031C5010E94843164E0C4012A
:105720000E94AF20811113C0F3012081822F90E0ED
:10573000A0E0B0E0ED81FE81408151816281738102
:10574000481759076A077B07A8F02F3F99F08FEF9A
:10575000F3018083088519850B5D1F4F60E0C80148
:105760000E94412EC8010E94683181E0E885F985D8
:10577000808F0CC066E0C4010E94AF20882309F42A
:1057800043CF888599850E945C2A34CF29960FB62D
:10579000F894DEBF0FBECDBFDF91CF911F910F9167
:1057A000FF90EF90DF90CF90BF90AF909F908F9041
:1057B0007F906F905F904F903F902F900895E0E81A
:1057C000F7E72591349181E02130304C09F080E0F9
:1057D0000895CF93DF93EC010E94DF2B9E012B55A0
:1057E0003F4FDE01A454BF4F882309F43CC0E6E9D3
:1057F000F7E78491F9018083E7E9F7E7E491EC8327
:10580000E8E9F7E7E491ED83E9E9F7E78591949119
:105810009F838E83EBE9F7E7859194919987888739
:10582000EDE9F7E7E491EBABEEE9F7E7E491EAABFA
:10583000EFE9F7E7E491EC93E0EAF7E785919491DB
:105840009D8F8C8FE2EAF7E7859194919F8F8E8FE1
:10585000E4EAF7E78591949199A388A3E6EAF7E74C
:105860008591949120C08CE3F90180831C822FEFF5
:105870002D8380E293E09F838E8384ED93E099876C
:10588000888781E08BAB8AAB2C938CEA9DE09D8F5F
:105890008C8F8EED9DE09F8F8E8F84E79EE099A385
:1058A00088A38CE39FE09BA38AA3DF91CF91089507
:1058B000CF92DF92EF920F93CF93DF93EC01FC0135
:1058C000E553FF4F82E38083349741E050E060E08E
:1058D00070E040835183628373833B978FEF8083B3
:1058E000CE010E94E92BCE010E94BD1F6FEFCE01B9
:1058F0000E94C11F6E018AE0C80ED11CC6010E9421
:105900006820C6010E947820CE0148960E9424207B
:105910003EE0E32E0FE020E14BE06DE0CE01865645
:105920009F4F0E94A226A596CE010E94332D65E0CE
:10593000C6010E94AF20882351F060E0CE01DF91C4
:10594000CF910F91EF90DF90CF900C94A03140E079
:105950006FE07AE0CE010E94512E41E06FE07AE0E4
:10596000CE010E94512E42E06FE07AE0CE01DF913D
:10597000CF910F91EF90DF90CF900C94512E8F929A
:105980009F92AF92BF92CF92DF92EF92FF920F93CE
:105990001F93CF93DF93CDB7DEB7260F371FE216E5
:1059A000F30684F4EA0CFB1C6E157F055CF4040F0F
:1059B000151FC016D10634F4C80CD91C81E04C1553
:1059C0005D050CF080E0DF91CF911F910F91FF906A
:1059D000EF90DF90CF90BF90AF909F908F90089501
:1059E000CF93DF9350E0FA01EE0FFF1FE80FF91F8E
:1059F00037A120A5E32FF22FE60FF11DE60FF11DD1
:105A000025913491BA01660F771F680F791FFB014A
:105A1000E95AFF4F31832083F90165917491FC01AC
:105A2000C485C69FD02D1124E40FF51FE35AFF4F04
:105A3000D083F901A591B4916B2F70E0ED2FF0E0C8
:105A4000840F951F6E177F0720F4F901259134917B
:105A5000D32FFC01E05AFF4FDC9FD02D1124D083BF
:105A6000DF91CF910895FF920F931F93CF93DF9310
:105A7000EC01FF24F394FC86FC01EE58FF4FF0820A
:105A800006E61AE018A70FA340E060E00E94F02CA1
:105A9000FE01ED58FF4FF0821AA709A741E060E030
:105AA000CE010E94F02CFE01EC58FF4FF0821CA7A3
:105AB0000BA742E060E0CE010E94F02C61E070E0B4
:105AC00083E00E94A632E1EBF0E08081887F816074
:105AD0008083F89410928000E1E8F0E01082109248
